S01A0000656E636173696E67636F6E74726F6C6C65722E737265637E
S11300000C9434000C9451000C9451000C94510045
S11300100C9451000C9451000C9451000C94510018
S11300200C9451000C9451000C9451000C94510008
S11300300C9451000C9451000C9451000C945100F8
S11300400C9451000C9451000C9451000C945100E8
S11300500C9451000C9451000C9451000C945100D8
S11300600C9451000C94510011241FBECFEFD8E022
S1130070DEBFCDBF11E0A0E0B1E0E8E1FDE002C0E9
S113008005900D92A23CB107D9F722E0A2ECB1E0B1
S113009001C01D92A430B207E1F70E94E1020C9462
S11300A08A060C940000219A229A80E491E09093AD
S11300B087008093860080EA90E090938900809383
S11300C08800E0E8F0E08081806C80838081826039
S11300D08083E1E8F0E08081886180838081897F8A
S11300E0808380818160808308951092B90088E4C0
S11300F08093B8000895AF92BF92CF92DF92EF92AF
S1130100FF920F931F93CF93DF93CDB7DEB7A097E2
S11301100FB6F894DEBF0FBECDBF182F062F84EAAA
S11301208093BC00ECEBF0E080818823ECF78091B5
S1130130B900887F883051F40E94C80281E00E948F
S1130140BB0280E091E00E94D2021EC08091B900FF
S1130150887F1F928F938FE091E09F938F93CE01BE
S113016001965C019F938F930E94A0030E94C80292
S113017081E00E94BB02C5010E94D2020F900F9041
S11301800F900F900F900F901093BB0084E8809312
S1130190BC00ECEBF0E080818823ECF78091B9009F
S11301A0887F803451F40E94C80281E00E94BB021F
S11301B088E191E00E94D2021EC08091B900887F3C
S11301C01F928F938BE291E09F938F93CE010196C0
S11301D05C019F938F930E94A0030E94C80281E058
S11301E00E94BB02C5010E94D2020F900F900F9093
S11301F00F900F900F901092BB0084E88093BC0086
S1130200ECEBF0E080818823ECF78091B900887FE3
S1130210803551F40E94C80281E00E94BB0286E34B
S113022091E00E94D2021EC08091B900887F1F9283
S11302308F9387E491E09F938F93CE0101965C01A5
S11302409F938F930E94A0030E94C80281E00E94A2
S1130250BB02C5010E94D2020F900F900F900F9025
S11302600F900F900093BB0084E88093BC00ECEBEC
S1130270F0E080818823ECF78091B900887F803595
S113028051F40E94C80281E00E94BB0282E591E021
S11302900E94D2021EC08091B900887F1F928F9362
S11302A084E691E09F938F93CE0101965C019F9326
S11302B08F930E94A0030E94C80281E00E94BB02A7
S11302C0C5010E94D2020F900F900F900F900F90D3
S11302D00F901F5F1093BB0084EA8093BC00ECEB8B
S11302E0F0E080818823ECF78091B900887F803129
S11302F051F40E94C80281E00E94BB028FE691E0A3
S11303000E94D2021EC08091B900887F1F928F93F1
S113031082E891E09F938F938E010F5F1F4F1F938D
S11303200F930E94A0030E94C80281E00E94BB02B6
S1130330C8010E94D2020F900F900F900F900F905F
S11303400F9084E88093BC00ECEBF0E0808188237C
S1130350ECF78091B900887F803469F5C090BB00C8
S1130360D12CDC2CCC240D2C000CEE08FF080E94B0
S1130370C80281E00E94BB0282E591E00E94D202A1
S113038082E00E94BB02FF92EF92DF92CF928DE84F
S113039091E09F938F938E010F5F1F4F1F930F93D5
S11303A00E94A003C8010E94D2020FB6F894DEBFD7
S11303B00FBECDBF1EC08091B900887F1F928F935E
S11303C089E991E09F938F938E010F5F1F4F1F93D5
S11303D00F930E94A0030E94C80281E00E94BB0206
S11303E0C8010E94D2020F900F900F900F900F90AF
S11303F00F9084E88093BC00ECEBF0E080818823CC
S1130400ECF78091B9008091BB0090E090930302D7
S113041080930202609102027091030284E9809346
S1130420BC00CB01770FAA0BBB0BBC01CD016C291F
S11304307D298E299F29A0960FB6F894DEBF0FBEA2
S1130440CDBFDF91CF911F910F91FF90EF90DF907F
S1130450CF90BF90AF900895539A8AB1806F8AB9B4
S11304608AB186608AB90895599A83EF91E0019719
S1130470F1F700C00000599808955B9A08955B98BD
S113048008955A980895CF93C82F662319F00E94AF
S11304903D0202C00E943F020E9441025C985F98A4
S11304A05E985D98C4FD5C9AC5FD5F9AC6FD5E9A30
S11304B0CC230CF45D9A0E9434025C985F985E9899
S11304C05D98C0FD5C9AC1FD5F9AC2FD5E9AC3FD52
S11304D05D9A0E943402CF91089560E00E94430225
S11304E0089561E00E944302089583ED90E301972B
S11304F0F1F700C0000080E30E946D0290E19A953C
S1130500F1F700C080E20E946D0280EC0E946D024F
S113051080E18A95F1F700C080E20E946D0280ECD0
S11305200E946D0290E19A95F1F700C080E00E946C
S11305306D0280EF0E946D0280E18A95F1F700C0A0
S113054080E00E946D0280E10E946D0290E19A9524
S1130550F1F700C080E00E946D0280EF0E946D02FE
S113056080E18A95F1F700C080E00E946D0280EE80
S11305700E946D020895813019F0823029F00895A7
S113058080E80E946D02089580EC0E946D02089537
S113059081E00E946D0283EC99E00197F1F700C0BD
S11305A000000895CF93DF93EC018881882331F014
S11305B021960E94710289918111FBCFDF91CF9125
S11305C00895C2ECD1E08CE0E4EAF1E0DE010190B0
S11305D00D928A95E1F72FEF84E39CE0215080404F
S11305E09040E1F700C000000E942C020E947502B6
S11305F00E94C8020E9453000E947500EFEFF4E3CA
S11306002CE0E150F0402040E1F700C0000061E040
S113061070E080EC0E947B008FEF91E1EAE781506B
S11306209040E040E1F700C0000060E070E080E945
S11306300E947B00FFEF21E18AE7F15020408040D7
S1130640E1F700C0000060E070E082E90E947B00F6
S1130650162F82E00E94BB021F921F9380EB91E051
S11306609F938F93DF93CF930E94A003CE010E94A8
S1130670D2022A9AFFEF24E38CE0F150204080401C
S1130680E1F700C000002A989FEFE0E7F2E0915004
S1130690E040F040E1F700C000002A9A2FEF80E725
S11306A092E0215080409040E1F700C000002A9879
S11306B0EFEFF9E628E1E150F0402040E1F700C017
S11306C000002A980F900F900F900F900F900F90AA
S11306D0C2E2D1E00F2EF8E8CF2ED12CF02D0F2E50
S11306E0F8EBEF2EF1E0FF2EF02D02EC11E002C04A
S11306F0C0E4D1E0F601D183C083DF93CF93FF92AE
S1130700EF921F930F930E94A0030E94C80281E0FE
S11307100E94BB02C8010E94D2028FEF99E6E8E171
S113072081509040E040E1F700C000002A982A97E9
S11307300F900F900F900F900F900F90C9F2DACF97
S1130740AEE0B0E0E6EAF3E00C9461060D891E89A0
S113075086E08C831A8309838FEF9FE79E838D83C2
S1130760AE01475E5F4F6F89788DCE0101960E947E
S1130770C203EF81F885E00FF11F10822E96E4E0AA
S11307800C947D06ABE0B0E0E8ECF3E00C94530687
S11307906C017B018A01FC0117821682838181FF2F
S11307A0CCC1CE0101963C01F6019381F70193FD82
S11307B0859193FF81917F01882309F4BAC1853221
S11307C039F493FD859193FF81917F01853229F45A
S11307D0B60190E00E94B905E7CF912C212C312C71
S11307E0FFE1F315D8F08B3279F038F4803279F0E8
S11307F08332A1F4232D20611DC08D3261F080333A
S113080069F4232D216016C0832D8260382EE32DD8
S1130810E4603E2E2AC0F32DF8601DC037FC2DC0C5
S113082020ED280F2A3040F08E32B9F436FC81C115
S1130830232D2064322E19C036FE06C08AE0989E0D
S1130840200D1124922E11C0EAE02E9E200D1124B9
S1130850222EF32DF0623F2E08C08C3621F4832D16
S11308608068382E02C0883641F4F70193FD8591E3
S113087093FF81917F018111B3CF982F9F7D955470
S1130880933028F40C5F1F4F9FE399830DC0833688
S113089031F0833771F0833509F059C021C0F80174
S11308A0808189830E5F1F4F88248394912C530188
S11308B013C02801F2E04F0E511CF801A080B18052
S11308C036FE03C0692D70E002C06FEF7FEFC501F3
S11308D00E94AE054C018201F32DFF773F2E16C016
S11308E0280122E0420E511CF801A080B18036FE9E
S11308F003C0692D70E002C06FEF7FEFC5010E9455
S1130900A3054C01F32DF0683F2E820133FC1BC07C
S1130910822D90E088169906B0F4B60180E290E04A
S11309200E94B9052A94F4CFF50137FC859137FE6E
S113093081915F01B60190E00E94B90521102A94CB
S113094021E0821A91088114910471F7E8C0843679
S113095011F0893641F5F80137FE07C060817181D5
S1130960828193810C5F1F4F08C060817181072EC3
S1130970000C880B990B0E5F1F4FF32DFF763F2E53
S113098097FF09C090958095709561957F4F8F4F23
S11309909F4FF0683F2E2AE030E0A3010E94F50546
S11309A0882E861845C0853731F4232D2F7EB22E2C
S11309B02AE030E025C0932D997FB92E8F36C1F0FF
S11309C018F4883579F0B5C0803719F0883721F0EC
S11309D0B0C0E92FE061BE2EB4FE0DC0FB2DF46063
S11309E0BF2E09C034FE0AC0292F2660B22E06C0CD
S11309F028E030E005C020E130E002C020E132E030
S1130A00F801B7FE07C060817181828193810C5F18
S1130A101F4F06C06081718180E090E00E5F1F4F20
S1130A20A3010E94F505882E8618FB2DFF773F2E23
S1130A3036FE0DC0232D2E7FA22E891458F434FEC9
S1130A400BC032FC09C0832D8E7EA82E05C0B82CA5
S1130A50A32C03C0B82C01C0B92CA4FE0FC0FE0106
S1130A60E80DF11D8081803321F49A2D997EA92E01
S1130A7009C0A2FE06C0B394B39404C08A2D86783C
S1130A8009F0B394A3FC11C0A0FE06C0B21488F40C
S1130A90280C922C9B180EC0B21460F4B60180E2AC
S1130AA090E00E94B905B394F7CFB21418F42B1850
S1130AB002C0982C212CA4FE10C0B60180E390E063
S1130AC00E94B905A2FE17C0A1FC03C088E790E00C
S1130AD002C088E590E0B6010CC08A2D867859F0F2
S1130AE0A1FE02C08BE201C080E2A7FC8DE2B60148
S1130AF090E00E94B905891438F4B60180E390E0CF
S1130B000E94B9059A94F7CF8A94F301E80DF11D78
S1130B108081B60190E00E94B9058110F5CF2220B2
S1130B2009F442CEB60180E290E00E94B9052A940D
S1130B30F6CFF6018681978102C08FEF9FEF2B9647
S1130B40E2E10C946F06FC010590615070400110C5
S1130B50D8F7809590958E0F9F1F0895FC016150E2
S1130B60704001900110D8F7809590958E0F9F1FCB
S1130B7008950F931F93CF93DF93FB01238121FDEE
S1130B8003C08FEF9FEF2CC022FF16C04681578110
S1130B90248135814217530744F4A081B1819D011A
S1130BA02F5F3F4F318320838C93268137812F5FC2
S1130BB03F4F3783268314C08B01EC01FB01008473
S1130BC0F185E02D0995892BE1F6D80116968D91D2
S1130BD09C911797019617969C938E931697CE0126
S1130BE0DF91CF911F910F910895FA01AA27283020
S1130BF051F1203181F1E8946F936E7F6E5F7F4FE6
S1130C008F4F9F4FAF4FB1E03ED0B4E03CD0670F61
S1130C10781F891F9A1FA11D680F791F8A1F911DB4
S1130C20A11D6A0F711D811D911DA11D20D009F404
S1130C3068943F912AE0269F11243019305D319346
S1130C40DEF6CF010895462F4770405D4193B3E02F
S1130C500FD0C9F7F6CF462F4F70405D4A3318F0D6
S1130C60495D31FD4052419302D0A9F7EACFB4E087
S1130C70A6959795879577956795BA95C9F700973F
S1130C806105710508959B01AC010A2E06945795E0
S1130C90479537952795BA95C9F7620F731F841F37
S1130CA0951FA01D08952F923F924F925F926F92CD
S1130CB07F928F929F92AF92BF92CF92DF92EF92E8
S1130CC0FF920F931F93CF93DF93CDB7DEB7CA1B69
S1130CD0DB0B0FB6F894DEBF0FBECDBF09942A8894
S1130CE0398848885F846E847D848C849B84AA843C
S1130CF0B984C884DF80EE80FD800C811B81AA81C9
S1130D00B981CE0FD11D0FB6F894DEBF0FBECDBF93
S10B0D10ED010895F894FFCFF2
S1130D184D525F53544152542053656E742100451B
S1130D285252303A202578004D525F534C415F525D
S1130D385F41434B2053656E742100455252313A4A
S1130D482030782578004D525F444154415F414337
S1130D584B2073656E7400455252323A2030782520
S1130D6878004D525F444154415F41434B207365C1
S1130D786E742100455252333A2030782578004D5C
S1130D88525F5245505F53544152542073656E74F8
S1130D982100455252343A20307825780076616C27
S1130DA83A2030782530327800455252353A20308E
S1130DB87825780068656C6C6F20776F726C6400B6
S1130DC876616C3A2025640068656C6C6F20256434
S1050DD8000015
S9030000FC
