:100000000C9434000C9451000C9451000C94510049
:100010000C9451000C9451000C9451000C9451001C
:100020000C9451000C9451000C9451000C9451000C
:100030000C9451000C9451000C9451000C945100FC
:100040000C9451000C9451000C9451000C945100EC
:100050000C9451000C9451000C9451000C945100DC
:100060000C9451000C94510011241FBECFEFD8E026
:10007000DEBFCDBF11E0A0E0B1E0EEE7FCE002C0E2
:1000800005900D92AA34B107D9F721E0AAE4B1E0B6
:1000900001C01D92AA38B207E1F70E94CE020C946B
:1000A0003D060C940000BF92CF92DF92EF92FF9238
:1000B0000F931F93CF93DF93CDB7DEB7A0970FB603
:1000C000F894DEBF0FBECDBF0E94A60180E90E945A
:1000D000CE0181E00E94FF0181E90E94F5010E94AA
:1000E0001002F82E0E941A028C010E94F7010E9451
:1000F000B80281E00E94AE0280E091E00E94C2025C
:1001000082E00E94AE02C80199279F938F931F92AD
:10011000FF9289E0E82E81E0F82EFF92EF928E01A7
:100120000F5F1F4F1F930F930E945303C8010E943C
:10013000C2022FEF89E698E1215080409040E1F71C
:1001400000C0000082E90E94CE0181E00E94FF0110
:1001500083E90E94F5010E941002B82E0E941A0243
:100160006C010E94F7010E94B80281E00E94AE0279
:1001700089E191E00E94C20282E00E94AE02C601C3
:1001800099279F938F931F92BF92FF92EF921F9395
:100190000F930E945303C8010E94C2022FEF89E609
:1001A00098E1215080409040E1F700C000000FB678
:1001B000F894DEBF0FBECDBFA0960FB6F894DEBF99
:1001C0000FBECDBFDF91CF911F910F91FF90EF90A8
:1001D000DF90CF90BF900895FF920F931F93CF931E
:1001E000DF93CDB7DEB7A0970FB6F894DEBF0FBE92
:1001F000CDBF80EC0E94CE0180E00E94FF0181EC27
:100200000E94F5010E941002F82E0E941A028C0131
:100210000E94F7010E94B80281E00E94AE0282E2D1
:1002200091E00E94C20282E00E94AE02C8019927BA
:100230009F938F931F92FF9289E091E09F938F93FA
:100240008E010F5F1F4F1F930F930E945303C8012E
:100250000E94C2022FEF89E698E121508040904031
:10026000E1F700C000000E94B8020FB6F894DEBFAC
:100270000FBECDBFA0960FB6F894DEBF0FBECDBFA8
:10028000DF91CF911F910F91FF9008950F931F93CE
:10029000CF93DF93CDB7DEB760970FB6F894DEBF8C
:1002A0000FBECDBF182F092F80EC0E94CE01802FEA
:1002B0008F700E94FF01812F0E94FF010E94F701B1
:1002C00082E00E94AE020F931F938AE291E09F9317
:1002D0008F938E010F5F1F4F1F930F930E94530345
:1002E000C8010E94C2020F900F900F900F900F90C4
:1002F0000F9060960FB6F894DEBF0FBECDBFDF91B2
:10030000CF911F910F910895219A229A80E491E054
:10031000909387008093860080EA90E09093890014
:1003200080938800E0E8F0E08081806C80838081A9
:1003300082608083E1E8F0E0808188618083808151
:10034000897F808380818160808308951092B900C5
:1003500088E48093B800089594EA9093BC0090914B
:10036000BC0097FFFCCF9091B900987F983021F0A6
:10037000903111F081E008958093BB0084E8809370
:10038000BC008091BC0087FFFCCF8091B900887FC2
:10039000883111F0803471F780E0089524EA34E860
:1003A00044E92093BC009091BC0097FFFCCF909152
:1003B000B900987F983011F0903199F78093BB0085
:1003C0003093BC009091BC0097FFFCCF9091B90096
:1003D000987F903211F0983439F44093BC0090919A
:1003E000BC0094FDFCCFDDCF08950C94AC0184E9F2
:1003F0008093BC008091BC0084FDFCCF0895809365
:10040000BB0084E88093BC008091BC0087FFFCCFD8
:100410009091B900987F81E0983209F480E00895C6
:1004200084EC8093BC008091BC0087FFFCCF80915E
:10043000BB00089584E88093BC008091BC0087FFD6
:10044000FCCF8091BB000895539A8AB1806F8AB91E
:100450008AB186608AB90895599A83EF91E001972D
:10046000F1F700C00000599808955B9A08955B98D1
:1004700008955A980895CF93C82F662319F00E94C3
:10048000350202C00E9437020E9439025C985F98D0
:100490005E985D98C4FD5C9AC5FD5F9AC6FD5E9A44
:1004A000C7FD5D9A0E942C025C985F985E985D98EB
:1004B000C0FD5C9AC1FD5F9AC2FD5E9AC3FD5D9A64
:1004C000CF910C942C0260E00C943B0261E00C9400
:1004D0003B0283ED90E30197F1F700C0000080E359
:1004E0000E94630290E19A95F1F700C080E20E94B9
:1004F000630280EC0E94630280E18A95F1F700C0FC
:1005000080E20E94630280EC0E94630290E19A956F
:10051000F1F700C080E00E94630280EF0E94630256
:1005200080E18A95F1F700C080E00E94630280E1DB
:100530000E94630290E19A95F1F700C080E00E946A
:10054000630280EF0E94630280E18A95F1F700C0A8
:1005500080E00E94630280EE0C946302813019F007
:10056000823019F0089580E801C080EC0C94630299
:1005700081E00E94630283EC99E00197F1F700C0EB
:1005800000000895CF93DF93EC018991882319F03F
:100590000E946602FACFDF91CF91089564E371E083
:1005A0008AE491E00E944C032FEF84E39CE0215009
:1005B00080409040E1F700C000000E9424020E94A9
:1005C00069020E94B8020E9484012FEF84E39CE03C
:1005D000215080409040E1F700C000000E9453008D
:1005E0000E94EC002A9A2FEF84E39CE02150804087
:1005F0009040E1F700C000002A982FEF80E792E0DA
:10060000215080409040E1F700C000002A9A2FEF6F
:1006100080E792E0215080409040E1F700C0000068
:100620002A98CCE2D1E080E4E82E81E0F82E0AE4BA
:1006300011E09FE0D92E2FEF89E698E1215080400C
:100640009040E1F700C000002A982A9711F4C0E416
:10065000D1E0D0938900C0938800DF93CF93FF92BD
:10066000EF921F930F930E9453030E94B80281E000
:100670000E94AE028AE491E00E94C202DC9EC001A8
:10068000DD9E900D11240E9446010F900F900F9057
:100690000F900F900F90CFCFFB01DC0101900D92D6
:1006A0000020E1F70895AEE0B0E0E9E5F3E00C9456
:1006B00014060D891E8986E08C831A8309838FEFC7
:1006C0009FE79E838D83AE01475E5F4F6F89788D74
:1006D000CE0101960E947503EF81F885E00FF11FAE
:1006E00010822E96E4E00C943006ABE0B0E0EBE72D
:1006F000F3E00C9406066C017B018A01FC01178271
:100700001682838181FFCCC1CE0101963C01F601A6
:100710009381F70193FD859193FF81917F01882358
:1007200009F4BAC1853239F493FD859193FF819123
:100730007F01853229F4B60190E00E946C05E7CF75
:10074000912C212C312CFFE1F315D8F08B3279F06C
:1007500038F4803279F08332A1F4232D20611DC05A
:100760008D3261F0803369F4232D216016C0832D12
:100770008260382EE32DE4603E2E2AC0F32DF8600F
:100780001DC037FC2DC020ED280F2A3040F08E32DE
:10079000B9F436FC81C1232D2064322E19C036FEF7
:1007A00006C08AE0989E200D1124922E11C0EAE026
:1007B0002E9E200D1124222EF32DF0623F2E08C014
:1007C0008C3621F4832D8068382E02C0883641F49F
:1007D000F70193FD859193FF81917F018111B3CF43
:1007E000982F9F7D9554933028F40C5F1F4F9FE303
:1007F00099830DC0833631F0833771F0833509F06A
:1008000059C021C0F801808189830E5F1F4F882461
:100810008394912C530113C02801F2E04F0E511C18
:10082000F801A080B18036FE03C0692D70E002C0DF
:100830006FEF7FEFC5010E9461054C018201F32D2E
:10084000FF773F2E16C0280122E0420E511CF8010E
:10085000A080B18036FE03C0692D70E002C06FEF4A
:100860007FEFC5010E9456054C01F32DF0683F2E25
:10087000820133FC1BC0822D90E088169906B0F4EB
:10088000B60180E290E00E946C052A94F4CFF50155
:1008900037FC859137FE81915F01B60190E00E949F
:1008A0006C0521102A9421E0821A91088114910488
:1008B00071F7E8C0843611F0893641F5F80137FE4A
:1008C00007C060817181828193810C5F1F4F08C0D6
:1008D00060817181072E000C880B990B0E5F1F4FF2
:1008E000F32DFF763F2E97FF09C090958095709568
:1008F00061957F4F8F4F9F4FF0683F2E2AE030E089
:10090000A3010E94A805882E861845C0853731F4BA
:10091000232D2F7EB22E2AE030E025C0932D997F23
:10092000B92E8F36C1F018F4883579F0B5C080370C
:1009300019F0883721F0B0C0E92FE061BE2EB4FE77
:100940000DC0FB2DF460BF2E09C034FE0AC0292F54
:100950002660B22E06C028E030E005C020E130E07D
:1009600002C020E132E0F801B7FE07C0608171816A
:10097000828193810C5F1F4F06C06081718180E08E
:1009800090E00E5F1F4FA3010E94A805882E8618D5
:10099000FB2DFF773F2E36FE0DC0232D2E7FA22E7E
:1009A000891458F434FE0BC032FC09C0832D8E7EAE
:1009B000A82E05C0B82CA32C03C0B82C01C0B92C9C
:1009C000A4FE0FC0FE01E80DF11D8081803321F4EB
:1009D0009A2D997EA92E09C0A2FE06C0B394B394A5
:1009E00004C08A2D867809F0B394A3FC11C0A0FE40
:1009F00006C0B21488F4280C922C9B180EC0B214B6
:100A000060F4B60180E290E00E946C05B394F7CFE9
:100A1000B21418F42B1802C0982C212CA4FE10C07C
:100A2000B60180E390E00E946C05A2FE17C0A1FC15
:100A300003C088E790E002C088E590E0B6010CC0F2
:100A40008A2D867859F0A1FE02C08BE201C080E2B7
:100A5000A7FC8DE2B60190E00E946C05891438F481
:100A6000B60180E390E00E946C059A94F7CF8A94D7
:100A7000F301E80DF11D8081B60190E00E946C0544
:100A80008110F5CF222009F442CEB60180E290E039
:100A90000E946C052A94F6CFF6018681978102C0E8
:100AA0008FEF9FEF2B96E2E10C942206FC0105905C
:100AB000615070400110D8F7809590958E0F9F1F60
:100AC0000895FC016150704001900110D8F78095A5
:100AD00090958E0F9F1F08950F931F93CF93DF93D1
:100AE000FB01238121FD03C08FEF9FEF2CC022FF6C
:100AF00016C046815781248135814217530744F43B
:100B0000A081B1819D012F5F3F4F318320838C9362
:100B1000268137812F5F3F4F3783268314C08B0197
:100B2000EC01FB010084F185E02D0995892BE1F6AC
:100B3000D80116968D919C911797019617969C93C4
:100B40008E931697CE01DF91CF911F910F9108954B
:100B5000FA01AA27283051F1203181F1E8946F93EE
:100B60006E7F6E5F7F4F8F4F9F4FAF4FB1E03ED094
:100B7000B4E03CD0670F781F891F9A1FA11D680F32
:100B8000791F8A1F911DA11D6A0F711D811D911D65
:100B9000A11D20D009F468943F912AE0269F1124DA
:100BA0003019305D3193DEF6CF010895462F47703E
:100BB000405D4193B3E00FD0C9F7F6CF462F4F7099
:100BC000405D4A3318F0495D31FD4052419302D0F7
:100BD000A9F7EACFB4E0A69597958795779567959D
:100BE000BA95C9F700976105710508959B01AC019D
:100BF0000A2E06945795479537952795BA95C9F7C4
:100C0000620F731F841F951FA01D08952F923F929E
:100C10004F925F926F927F928F929F92AF92BF920C
:100C2000CF92DF92EF92FF920F931F93CF93DF93B8
:100C3000CDB7DEB7CA1BDB0B0FB6F894DEBF0FBE15
:100C4000CDBF09942A88398848885F846E847D8462
:100C50008C849B84AA84B984C884DF80EE80FD8064
:100C60000C811B81AA81B981CE0FD11D0FB6F894DA
:0E0C7000DEBF0FBECDBFED010895F894FFCF9B
:100C7E00414453303A204F4B0076616C3A20307825
:100C8E00253032782530327800414453313A204FA6
:100C9E004B004D43503A204F4B0053657420746FF8
:100CAE002025640068656C6C6F20776F726C640031
:0A0CBE0068656C6C6F20256400006F
:00000001FF
