:100000000C9434000C9449000C9449000C94490061
:100010000C9449000C9449000C9449000C9449003C
:100020000C9449000C9449000C9449000C9449002C
:100030000C9449000C9449000C9449000C9449001C
:100040000C9449000C9449000C9449000C9449000C
:100050000C9449000C9449000C9449000C944900FC
:100060000C9449000C94490011241FBECFEFD8E036
:10007000DEBFCDBF11E0A0E0B1E0EEE5F1E002C0EF
:1000800005900D92A030B107D9F70E946A000C9438
:10009000AD000C940000219A229A85E595E5909395
:1000A00087008093860081E79CE19093890080938C
:1000B0008800E0E8F0E08081806880838081826051
:1000C0008083808188618083E1E8F0E080818560C1
:1000D000808308950E944B002A9A2FEF44E35CE04E
:1000E000215040405040E1F700C000002A986FEFD7
:1000F00089E698E1615080409040E1F700C000003F
:100100002A9A2FEF49E658E1215040405040E1F74C
:1001100000C000002A98A8E8B0E025E535E5EAE847
:10012000F0E080E190E06FEF41E15AE7615040403C
:100130005040E1F700C000002A9A11963C932E939C
:100140006FEF41E15AE7615040405040E1F700C095
:0E01500000002A9891838083E6CFF894FFCFB9
:00000001FF
