:100000000C9434000C9449000C9449000C94490061
:100010000C9449000C9449000C9449000C9449003C
:100020000C9449000C9449000C9449000C9449002C
:100030000C9449000C9449000C9449000C9449001C
:100040000C9449000C9449000C9449000C9449000C
:100050000C9449000C9449000C9449000C944900FC
:100060000C9449000C94490011241FBECFEFD8E036
:10007000DEBFCDBF11E0A0E0B1E0EEE5F1E002C0EF
:1000800005900D92A030B107D9F70E946D000C9435
:10009000AD000C940000219A229A80E491E09093A4
:1000A00087008093860080EA90E090938900809397
:1000B0008800E0E8F0E08081806C8083808182604D
:1000C0008083E1E8F0E08081886180838081897F9E
:1000D000808380818160808308950E944B002A9AEA
:1000E0002FEF44E35CE0215040405040E1F700C076
:1000F00000002A986FEF89E698E1615080409040B7
:10010000E1F700C000002A9A2FEF49E658E121509C
:1001100040405040E1F700C000002A98E8E8F0E0D5
:100120002CE231E08AE090E06FEF41E15AE7615064
:1001300040405040E1F700C000002A9A31832083FC
:100140006FEF41E15AE7615040405040E1F700C095
:0E01500000002A9891838083E7CFF894FFCFB8
:00000001FF
