S01A0000656E636173696E67636F6E74726F6C6C65722E737265637E
S11300000C9434000C9449000C9449000C9449005D
S11300100C9449000C9449000C9449000C94490038
S11300200C9449000C9449000C9449000C94490028
S11300300C9449000C9449000C9449000C94490018
S11300400C9449000C9449000C9449000C94490008
S11300500C9449000C9449000C9449000C944900F8
S11300600C9449000C94490011241FBECFEFD8E032
S1130070DEBFCDBF11E0A0E0B1E0E8E4F1E002C0F2
S113008005900D92A030B107D9F70E9462000C943C
S1130090A2000C940000219A229AE0E8F0E0F09388
S11300A08900E09388008081806C808380818960EE
S11300B08083E1E8F0E08081897F808380818160B2
S11300C0808308950E944B002A9A2FEF44E35CE05A
S11300D0215040405040E1F700C000002A986FEFE3
S11300E089E698E1615080409040E1F700C000004B
S11300F02A9A2FEF49E658E1215040405040E1F759
S113010000C000002A98E8E8F0E02AEF30E08AE036
S113011090E06FEF41E15AE7615040405040E1F711
S113012000C000002A9A318320836FEF41E15AE72F
S1130130615040405040E1F700C000002A9891838C
S10B01408083E7CFF894FFCFA0
S9030000FC
